{
  "_format": "hh-sol-artifact-1",
  "contractName": "ProductReview",
  "sourceName": "contracts/Lock.sol",
  "abi": [
    {
      "inputs": [
        {
          "internalType": "address",
          "name": "_token",
          "type": "address"
        },
        {
          "internalType": "uint256",
          "name": "_rewardAmount",
          "type": "uint256"
        }
      ],
      "stateMutability": "nonpayable",
      "type": "constructor"
    },
    {
      "anonymous": false,
      "inputs": [
        {
          "indexed": false,
          "internalType": "uint256",
          "name": "productId",
          "type": "uint256"
        },
        {
          "indexed": false,
          "internalType": "address",
          "name": "buyer",
          "type": "address"
        }
      ],
      "name": "BuyerVerified",
      "type": "event"
    },
    {
      "anonymous": false,
      "inputs": [
        {
          "indexed": false,
          "internalType": "uint256",
          "name": "productId",
          "type": "uint256"
        },
        {
          "indexed": false,
          "internalType": "string",
          "name": "name",
          "type": "string"
        }
      ],
      "name": "ProductAdded",
      "type": "event"
    },
    {
      "anonymous": false,
      "inputs": [
        {
          "indexed": false,
          "internalType": "uint256",
          "name": "productId",
          "type": "uint256"
        },
        {
          "indexed": false,
          "internalType": "address",
          "name": "reviewer",
          "type": "address"
        },
        {
          "indexed": false,
          "internalType": "uint8",
          "name": "rating",
          "type": "uint8"
        },
        {
          "indexed": false,
          "internalType": "string",
          "name": "comment",
          "type": "string"
        }
      ],
      "name": "ReviewSubmitted",
      "type": "event"
    },
    {
      "anonymous": false,
      "inputs": [
        {
          "indexed": false,
          "internalType": "address",
          "name": "reviewer",
          "type": "address"
        },
        {
          "indexed": false,
          "internalType": "uint256",
          "name": "amount",
          "type": "uint256"
        }
      ],
      "name": "RewardIssued",
      "type": "event"
    },
    {
      "inputs": [
        {
          "internalType": "string",
          "name": "_name",
          "type": "string"
        }
      ],
      "name": "addProduct",
      "outputs": [],
      "stateMutability": "nonpayable",
      "type": "function"
    },
    {
      "inputs": [
        {
          "internalType": "uint256",
          "name": "_productId",
          "type": "uint256"
        }
      ],
      "name": "getReviews",
      "outputs": [
        {
          "components": [
            {
              "internalType": "address",
              "name": "reviewer",
              "type": "address"
            },
            {
              "internalType": "uint256",
              "name": "productId",
              "type": "uint256"
            },
            {
              "internalType": "uint8",
              "name": "rating",
              "type": "uint8"
            },
            {
              "internalType": "string",
              "name": "comment",
              "type": "string"
            }
          ],
          "internalType": "struct ProductReview.Review[]",
          "name": "",
          "type": "tuple[]"
        }
      ],
      "stateMutability": "view",
      "type": "function"
    },
    {
      "inputs": [
        {
          "internalType": "address",
          "name": "",
          "type": "address"
        },
        {
          "internalType": "uint256",
          "name": "",
          "type": "uint256"
        }
      ],
      "name": "hasReviewed",
      "outputs": [
        {
          "internalType": "bool",
          "name": "",
          "type": "bool"
        }
      ],
      "stateMutability": "view",
      "type": "function"
    },
    {
      "inputs": [],
      "name": "owner",
      "outputs": [
        {
          "internalType": "address",
          "name": "",
          "type": "address"
        }
      ],
      "stateMutability": "view",
      "type": "function"
    },
    {
      "inputs": [],
      "name": "productCount",
      "outputs": [
        {
          "internalType": "uint256",
          "name": "",
          "type": "uint256"
        }
      ],
      "stateMutability": "view",
      "type": "function"
    },
    {
      "inputs": [
        {
          "internalType": "uint256",
          "name": "",
          "type": "uint256"
        },
        {
          "internalType": "uint256",
          "name": "",
          "type": "uint256"
        }
      ],
      "name": "productReviews",
      "outputs": [
        {
          "internalType": "address",
          "name": "reviewer",
          "type": "address"
        },
        {
          "internalType": "uint256",
          "name": "productId",
          "type": "uint256"
        },
        {
          "internalType": "uint8",
          "name": "rating",
          "type": "uint8"
        },
        {
          "internalType": "string",
          "name": "comment",
          "type": "string"
        }
      ],
      "stateMutability": "view",
      "type": "function"
    },
    {
      "inputs": [
        {
          "internalType": "uint256",
          "name": "",
          "type": "uint256"
        }
      ],
      "name": "products",
      "outputs": [
        {
          "internalType": "uint256",
          "name": "id",
          "type": "uint256"
        },
        {
          "internalType": "string",
          "name": "name",
          "type": "string"
        },
        {
          "internalType": "bool",
          "name": "exists",
          "type": "bool"
        }
      ],
      "stateMutability": "view",
      "type": "function"
    },
    {
      "inputs": [],
      "name": "rewardAmount",
      "outputs": [
        {
          "internalType": "uint256",
          "name": "",
          "type": "uint256"
        }
      ],
      "stateMutability": "view",
      "type": "function"
    },
    {
      "inputs": [],
      "name": "rewardToken",
      "outputs": [
        {
          "internalType": "contract IToken",
          "name": "",
          "type": "address"
        }
      ],
      "stateMutability": "view",
      "type": "function"
    },
    {
      "inputs": [
        {
          "internalType": "uint256",
          "name": "_productId",
          "type": "uint256"
        },
        {
          "internalType": "uint8",
          "name": "_rating",
          "type": "uint8"
        },
        {
          "internalType": "string",
          "name": "_comment",
          "type": "string"
        }
      ],
      "name": "submitReview",
      "outputs": [],
      "stateMutability": "nonpayable",
      "type": "function"
    },
    {
      "inputs": [
        {
          "internalType": "uint256",
          "name": "_productId",
          "type": "uint256"
        },
        {
          "internalType": "address",
          "name": "_buyer",
          "type": "address"
        }
      ],
      "name": "verifyBuyer",
      "outputs": [],
      "stateMutability": "nonpayable",
      "type": "function"
    }
  ],
  "bytecode": "0x6080604052348015600e575f5ffd5b50604051611064380380611064833981016040819052602b916060565b5f8054336001600160a01b031991821617909155600180549091166001600160a01b0393909316929092179091556002556095565b5f5f604083850312156070575f5ffd5b82516001600160a01b03811681146085575f5ffd5b6020939093015192949293505050565b610fc2806100a25f395ff3fe608060405234801561000f575f5ffd5b50600436106100a6575f3560e01c80639d4a22551161006e5780639d4a225514610160578063dfe00c5114610180578063e0f6ef8714610193578063f2943dce146101aa578063f7b2a7be146101cd578063f7c618c1146101d6575f5ffd5b8063309578ff146100aa57806374a5b693146100ec5780637acc0b20146101015780638da5cb5b1461012357806399f90a8e1461014d575b5f5ffd5b6100d76100b8366004610a03565b600660209081525f928352604080842090915290825290205460ff1681565b60405190151581526020015b60405180910390f35b6100ff6100fa366004610a70565b6101e9565b005b61011461010f366004610acd565b610565565b6040516100e393929190610b27565b5f54610135906001600160a01b031681565b6040516001600160a01b0390911681526020016100e3565b6100ff61015b366004610b51565b610610565b61017361016e366004610acd565b610716565b6040516100e39190610b7b565b6100ff61018e366004610c15565b610842565b61019c60035481565b6040519081526020016100e3565b6101bd6101b8366004610c54565b61090f565b6040516100e39493929190610c74565b61019c60025481565b600154610135906001600160a01b031681565b5f8481526004602052604090206003015460ff166102465760405162461bcd60e51b8152602060048201526015602482015274141c9bd91d58dd08191bd95cdb89dd08195e1a5cdd605a1b60448201526064015b60405180910390fd5b5f84815260046020908152604080832033845260020190915290205460ff166102a85760405162461bcd60e51b81526020600482015260146024820152732737ba1030903b32b934b334b2b210313abcb2b960611b604482015260640161023d565b335f90815260066020908152604080832087845290915290205460ff16156103055760405162461bcd60e51b815260206004820152601060248201526f105b1c9958591e481c995d9a595dd95960821b604482015260640161023d565b60018360ff161015801561031d575060058360ff1611155b61035e5760405162461bcd60e51b8152602060048201526012602482015271526174696e67206d75737420626520312d3560701b604482015260640161023d565b60055f8581526020019081526020015f206040518060800160405280336001600160a01b031681526020018681526020018560ff16815260200184848080601f0160208091040260200160405190810160405280939291908181526020018383808284375f920182905250939094525050835460018082018655948252602091829020845160049092020180546001600160a01b0319166001600160a01b03909216919091178155908301519381019390935550604081015160028301805460ff191660ff909216919091179055606081015190919060038201906104439082610d45565b5050335f81815260066020908152604080832089845290915290819020805460ff1916600190811790915554600254915163a9059cbb60e01b8152600481019390935260248301919091526001600160a01b0316915063a9059cbb906044016020604051808303815f875af11580156104be573d5f5f3e3d5ffd5b505050506040513d601f19601f820116820180604052508101906104e29190610e00565b507f1d4e9183da763b1e285cbd17de8d69818200b71822bc1d67e368eaadde895f1c843385858560405161051a959493929190610e4e565b60405180910390a16002546040805133815260208101929092527ff9b6ec770c96c3a6f9225bf3a8463a8ad03e884448af07b4ecd4d19d628946ee910160405180910390a150505050565b60046020525f90815260409020805460018201805491929161058690610cc1565b80601f01602080910402602001604051908101604052809291908181526020018280546105b290610cc1565b80156105fd5780601f106105d4576101008083540402835291602001916105fd565b820191905f5260205f20905b8154815290600101906020018083116105e057829003601f168201915b5050506003909301549192505060ff1683565b5f546001600160a01b031633146106565760405162461bcd60e51b815260206004820152600a60248201526927b7363c9037bbb732b960b11b604482015260640161023d565b5f8281526004602052604090206003015460ff166106a85760405162461bcd60e51b815260206004820152600f60248201526e125b9d985b1a59081c1c9bd91d58dd608a1b604482015260640161023d565b5f8281526004602090815260408083206001600160a01b0385168085526002909101835292819020805460ff191660011790558051858152918201929092527f45fceee22b2f7e759af3fb630dd61915aed887db73e87362424782521a1f18fb910160405180910390a15050565b606060055f8381526020019081526020015f20805480602002602001604051908101604052809291908181526020015f905b82821015610837575f848152602090819020604080516080810182526004860290920180546001600160a01b03168352600181015493830193909352600283015460ff16908201526003820180549192916060840191906107a890610cc1565b80601f01602080910402602001604051908101604052809291908181526020018280546107d490610cc1565b801561081f5780601f106107f65761010080835404028352916020019161081f565b820191905f5260205f20905b81548152906001019060200180831161080257829003601f168201915b50505050508152505081526020019060010190610748565b505050509050919050565b5f546001600160a01b031633146108885760405162461bcd60e51b815260206004820152600a60248201526927b7363c9037bbb732b960b11b604482015260640161023d565b60038054905f61089783610e8c565b90915550506003545f818152600460205260409020908155600181016108be838583610eb0565b506003808201805460ff19166001179055546040517f259101de1f87b04b9ee0332ce5e3cc508014004bf283424aead6cd8692f5cf98916109029186908690610f6a565b60405180910390a1505050565b6005602052815f5260405f208181548110610928575f80fd5b5f91825260209091206004909102018054600182015460028301546003840180546001600160a01b03909416965091945060ff16929161096790610cc1565b80601f016020809104026020016040519081016040528092919081815260200182805461099390610cc1565b80156109de5780601f106109b5576101008083540402835291602001916109de565b820191905f5260205f20905b8154815290600101906020018083116109c157829003601f168201915b5050505050905084565b80356001600160a01b03811681146109fe575f5ffd5b919050565b5f5f60408385031215610a14575f5ffd5b610a1d836109e8565b946020939093013593505050565b5f5f83601f840112610a3b575f5ffd5b50813567ffffffffffffffff811115610a52575f5ffd5b602083019150836020828501011115610a69575f5ffd5b9250929050565b5f5f5f5f60608587031215610a83575f5ffd5b84359350602085013560ff81168114610a9a575f5ffd5b9250604085013567ffffffffffffffff811115610ab5575f5ffd5b610ac187828801610a2b565b95989497509550505050565b5f60208284031215610add575f5ffd5b5035919050565b5f81518084525f5b81811015610b0857602081850181015186830182015201610aec565b505f602082860101526020601f19601f83011685010191505092915050565b838152606060208201525f610b3f6060830185610ae4565b90508215156040830152949350505050565b5f5f60408385031215610b62575f5ffd5b82359150610b72602084016109e8565b90509250929050565b5f602082016020835280845180835260408501915060408160051b8601019250602086015f5b82811015610c0957868503603f19018452815180516001600160a01b031686526020808201519087015260408082015160ff1690870152606090810151608091870182905290610bf390870182610ae4565b9550506020938401939190910190600101610ba1565b50929695505050505050565b5f5f60208385031215610c26575f5ffd5b823567ffffffffffffffff811115610c3c575f5ffd5b610c4885828601610a2b565b90969095509350505050565b5f5f60408385031215610c65575f5ffd5b50508035926020909101359150565b60018060a01b038516815283602082015260ff83166040820152608060608201525f610ca36080830184610ae4565b9695505050505050565b634e487b7160e01b5f52604160045260245ffd5b600181811c90821680610cd557607f821691505b602082108103610cf357634e487b7160e01b5f52602260045260245ffd5b50919050565b601f821115610d4057805f5260205f20601f840160051c81016020851015610d1e5750805b601f840160051c820191505b81811015610d3d575f8155600101610d2a565b50505b505050565b815167ffffffffffffffff811115610d5f57610d5f610cad565b610d7381610d6d8454610cc1565b84610cf9565b6020601f821160018114610da5575f8315610d8e5750848201515b5f19600385901b1c1916600184901b178455610d3d565b5f84815260208120601f198516915b82811015610dd45787850151825560209485019460019092019101610db4565b5084821015610df157868401515f19600387901b60f8161c191681555b50505050600190811b01905550565b5f60208284031215610e10575f5ffd5b81518015158114610e1f575f5ffd5b9392505050565b81835281816020850137505f828201602090810191909152601f909101601f19169091010190565b8581526001600160a01b038516602082015260ff841660408201526080606082018190525f90610e819083018486610e26565b979650505050505050565b5f60018201610ea957634e487b7160e01b5f52601160045260245ffd5b5060010190565b67ffffffffffffffff831115610ec857610ec8610cad565b610edc83610ed68354610cc1565b83610cf9565b5f601f841160018114610f0d575f8515610ef65750838201355b5f19600387901b1c1916600186901b178355610d3d565b5f83815260208120601f198716915b82811015610f3c5786850135825560209485019460019092019101610f1c565b5086821015610f58575f1960f88860031b161c19848701351681555b505060018560011b0183555050505050565b838152604060208201525f610f83604083018486610e26565b9594505050505056fea264697066735822122028fa0b7f3bf8ecc0400c86563c10d497b704e26ee7dd02adce306f7c8d15eb9664736f6c634300081c0033",
  "linkReferences": {},
  "deployedLinkReferences": {}
}